{
  "_format": "hh3-artifact-1",
  "contractName": "PaymentEscrow",
  "sourceName": "contracts/PaymentEscrow.sol",
  "abi": [
    {
      "inputs": [
        {
          "internalType": "address",
          "name": "_treasury",
          "type": "address"
        },
        {
          "internalType": "address",
          "name": "initialOwner",
          "type": "address"
        }
      ],
      "stateMutability": "nonpayable",
      "type": "constructor"
    },
    {
      "inputs": [],
      "name": "EnforcedPause",
      "type": "error"
    },
    {
      "inputs": [],
      "name": "ExpectedPause",
      "type": "error"
    },
    {
      "inputs": [
        {
          "internalType": "address",
          "name": "owner",
          "type": "address"
        }
      ],
      "name": "OwnableInvalidOwner",
      "type": "error"
    },
    {
      "inputs": [
        {
          "internalType": "address",
          "name": "account",
          "type": "address"
        }
      ],
      "name": "OwnableUnauthorizedAccount",
      "type": "error"
    },
    {
      "inputs": [],
      "name": "ReentrancyGuardReentrantCall",
      "type": "error"
    },
    {
      "anonymous": false,
      "inputs": [
        {
          "indexed": true,
          "internalType": "address",
          "name": "previousOwner",
          "type": "address"
        },
        {
          "indexed": true,
          "internalType": "address",
          "name": "newOwner",
          "type": "address"
        }
      ],
      "name": "OwnershipTransferred",
      "type": "event"
    },
    {
      "anonymous": false,
      "inputs": [
        {
          "indexed": false,
          "internalType": "address",
          "name": "account",
          "type": "address"
        }
      ],
      "name": "Paused",
      "type": "event"
    },
    {
      "anonymous": false,
      "inputs": [
        {
          "indexed": true,
          "internalType": "bytes32",
          "name": "paymentId",
          "type": "bytes32"
        },
        {
          "indexed": true,
          "internalType": "address",
          "name": "user",
          "type": "address"
        },
        {
          "indexed": false,
          "internalType": "uint256",
          "name": "amount",
          "type": "uint256"
        },
        {
          "indexed": false,
          "internalType": "string",
          "name": "toolName",
          "type": "string"
        }
      ],
      "name": "PaymentCreated",
      "type": "event"
    },
    {
      "anonymous": false,
      "inputs": [
        {
          "indexed": true,
          "internalType": "bytes32",
          "name": "paymentId",
          "type": "bytes32"
        },
        {
          "indexed": true,
          "internalType": "address",
          "name": "backend",
          "type": "address"
        }
      ],
      "name": "PaymentExecuted",
      "type": "event"
    },
    {
      "anonymous": false,
      "inputs": [
        {
          "indexed": true,
          "internalType": "bytes32",
          "name": "paymentId",
          "type": "bytes32"
        },
        {
          "indexed": true,
          "internalType": "address",
          "name": "user",
          "type": "address"
        },
        {
          "indexed": false,
          "internalType": "uint256",
          "name": "amount",
          "type": "uint256"
        }
      ],
      "name": "PaymentRefunded",
      "type": "event"
    },
    {
      "anonymous": false,
      "inputs": [
        {
          "indexed": true,
          "internalType": "address",
          "name": "token",
          "type": "address"
        },
        {
          "indexed": false,
          "internalType": "bool",
          "name": "supported",
          "type": "bool"
        }
      ],
      "name": "TokenSupported",
      "type": "event"
    },
    {
      "anonymous": false,
      "inputs": [
        {
          "indexed": false,
          "internalType": "address",
          "name": "account",
          "type": "address"
        }
      ],
      "name": "Unpaused",
      "type": "event"
    },
    {
      "inputs": [
        {
          "internalType": "address",
          "name": "backend",
          "type": "address"
        }
      ],
      "name": "addAuthorizedBackend",
      "outputs": [],
      "stateMutability": "nonpayable",
      "type": "function"
    },
    {
      "inputs": [
        {
          "internalType": "address",
          "name": "",
          "type": "address"
        }
      ],
      "name": "authorizedBackends",
      "outputs": [
        {
          "internalType": "bool",
          "name": "",
          "type": "bool"
        }
      ],
      "stateMutability": "view",
      "type": "function"
    },
    {
      "inputs": [
        {
          "internalType": "string",
          "name": "agentId",
          "type": "string"
        },
        {
          "internalType": "string",
          "name": "toolName",
          "type": "string"
        },
        {
          "internalType": "address",
          "name": "token",
          "type": "address"
        },
        {
          "internalType": "uint256",
          "name": "amount",
          "type": "uint256"
        }
      ],
      "name": "createPayment",
      "outputs": [
        {
          "internalType": "bytes32",
          "name": "",
          "type": "bytes32"
        }
      ],
      "stateMutability": "payable",
      "type": "function"
    },
    {
      "inputs": [
        {
          "internalType": "bytes32",
          "name": "paymentId",
          "type": "bytes32"
        }
      ],
      "name": "executePayment",
      "outputs": [],
      "stateMutability": "nonpayable",
      "type": "function"
    },
    {
      "inputs": [
        {
          "internalType": "bytes32",
          "name": "paymentId",
          "type": "bytes32"
        }
      ],
      "name": "getPayment",
      "outputs": [
        {
          "components": [
            {
              "internalType": "address",
              "name": "user",
              "type": "address"
            },
            {
              "internalType": "uint256",
              "name": "amount",
              "type": "uint256"
            },
            {
              "internalType": "address",
              "name": "token",
              "type": "address"
            },
            {
              "internalType": "string",
              "name": "agentId",
              "type": "string"
            },
            {
              "internalType": "string",
              "name": "toolName",
              "type": "string"
            },
            {
              "internalType": "uint256",
              "name": "timestamp",
              "type": "uint256"
            },
            {
              "internalType": "bool",
              "name": "executed",
              "type": "bool"
            },
            {
              "internalType": "bool",
              "name": "refunded",
              "type": "bool"
            }
          ],
          "internalType": "struct PaymentEscrow.Payment",
          "name": "",
          "type": "tuple"
        }
      ],
      "stateMutability": "view",
      "type": "function"
    },
    {
      "inputs": [],
      "name": "owner",
      "outputs": [
        {
          "internalType": "address",
          "name": "",
          "type": "address"
        }
      ],
      "stateMutability": "view",
      "type": "function"
    },
    {
      "inputs": [],
      "name": "pause",
      "outputs": [],
      "stateMutability": "nonpayable",
      "type": "function"
    },
    {
      "inputs": [],
      "name": "paused",
      "outputs": [
        {
          "internalType": "bool",
          "name": "",
          "type": "bool"
        }
      ],
      "stateMutability": "view",
      "type": "function"
    },
    {
      "inputs": [
        {
          "internalType": "bytes32",
          "name": "",
          "type": "bytes32"
        }
      ],
      "name": "payments",
      "outputs": [
        {
          "internalType": "address",
          "name": "user",
          "type": "address"
        },
        {
          "internalType": "uint256",
          "name": "amount",
          "type": "uint256"
        },
        {
          "internalType": "address",
          "name": "token",
          "type": "address"
        },
        {
          "internalType": "string",
          "name": "agentId",
          "type": "string"
        },
        {
          "internalType": "string",
          "name": "toolName",
          "type": "string"
        },
        {
          "internalType": "uint256",
          "name": "timestamp",
          "type": "uint256"
        },
        {
          "internalType": "bool",
          "name": "executed",
          "type": "bool"
        },
        {
          "internalType": "bool",
          "name": "refunded",
          "type": "bool"
        }
      ],
      "stateMutability": "view",
      "type": "function"
    },
    {
      "inputs": [
        {
          "internalType": "bytes32",
          "name": "paymentId",
          "type": "bytes32"
        }
      ],
      "name": "refundPayment",
      "outputs": [],
      "stateMutability": "nonpayable",
      "type": "function"
    },
    {
      "inputs": [
        {
          "internalType": "address",
          "name": "backend",
          "type": "address"
        }
      ],
      "name": "removeAuthorizedBackend",
      "outputs": [],
      "stateMutability": "nonpayable",
      "type": "function"
    },
    {
      "inputs": [],
      "name": "renounceOwnership",
      "outputs": [],
      "stateMutability": "nonpayable",
      "type": "function"
    },
    {
      "inputs": [
        {
          "internalType": "address",
          "name": "token",
          "type": "address"
        },
        {
          "internalType": "bool",
          "name": "supported",
          "type": "bool"
        }
      ],
      "name": "setSupportedToken",
      "outputs": [],
      "stateMutability": "nonpayable",
      "type": "function"
    },
    {
      "inputs": [
        {
          "internalType": "address",
          "name": "",
          "type": "address"
        }
      ],
      "name": "supportedTokens",
      "outputs": [
        {
          "internalType": "bool",
          "name": "",
          "type": "bool"
        }
      ],
      "stateMutability": "view",
      "type": "function"
    },
    {
      "inputs": [
        {
          "internalType": "address",
          "name": "newOwner",
          "type": "address"
        }
      ],
      "name": "transferOwnership",
      "outputs": [],
      "stateMutability": "nonpayable",
      "type": "function"
    },
    {
      "inputs": [],
      "name": "treasury",
      "outputs": [
        {
          "internalType": "address",
          "name": "",
          "type": "address"
        }
      ],
      "stateMutability": "view",
      "type": "function"
    },
    {
      "inputs": [],
      "name": "unpause",
      "outputs": [],
      "stateMutability": "nonpayable",
      "type": "function"
    },
    {
      "inputs": [
        {
          "internalType": "address",
          "name": "newTreasury",
          "type": "address"
        }
      ],
      "name": "updateTreasury",
      "outputs": [],
      "stateMutability": "nonpayable",
      "type": "function"
    },
    {
      "inputs": [
        {
          "internalType": "bytes32",
          "name": "paymentId",
          "type": "bytes32"
        }
      ],
      "name": "verifyPayment",
      "outputs": [
        {
          "internalType": "bool",
          "name": "",
          "type": "bool"
        }
      ],
      "stateMutability": "view",
      "type": "function"
    }
  ],
  "bytecode": "0x608060405234801562000010575f80fd5b5060405162001bb638038062001bb683398101604081905262000033916200015d565b806001600160a01b0381166200006357604051631e4fbdf760e01b81525f60048201526024015b60405180910390fd5b6200006e81620000f2565b50600180556001600160a01b038216620000cb5760405162461bcd60e51b815260206004820152601860248201527f496e76616c69642074726561737572792061646472657373000000000000000060448201526064016200005a565b50600680546001600160a01b0319166001600160a01b039290921691909117905562000193565b5f80546001600160a01b038381166001600160a01b0319831681178455604051919092169283917f8be0079c531659141344cd1fd0a4f28419497f9722a3daafe3b4186f6b6457e09190a35050565b80516001600160a01b038116811462000158575f80fd5b919050565b5f80604083850312156200016f575f80fd5b6200017a8362000141565b91506200018a6020840162000141565b90509250929050565b611a1580620001a15f395ff3fe608060405260043610610110575f3560e01c80637f51bb1f1161009d578063e66eefc811610062578063e66eefc8146102f2578063e712a35d1461031e578063e79864661461034c578063f2776d2e1461036b578063f2fde38b1461038a575f80fd5b80637f51bb1f146102655780638456cb59146102845780638da5cb5b146102985780639ba78fd9146102b4578063de8f8b3f146102d3575f80fd5b806348e68950116100e357806348e68950146101a65780635c975abb146101d557806361d027b3146101ec57806368c4ac2614610223578063715018a614610251575f80fd5b80630716326d146101145780633de1a739146101505780633f4ba83a14610171578063418bb26014610187575b5f80fd5b34801561011f575f80fd5b5061013361012e36600461150f565b6103a9565b604051610147989796959493929190611573565b60405180910390f35b61016361015e366004611695565b61050c565b604051908152602001610147565b34801561017c575f80fd5b50610185610860565b005b348015610192575f80fd5b506101856101a136600461150f565b610872565b3480156101b1575f80fd5b506101c56101c036600461150f565b610b68565b6040519015158152602001610147565b3480156101e0575f80fd5b5060025460ff166101c5565b3480156101f7575f80fd5b5060065461020b906001600160a01b031681565b6040516001600160a01b039091168152602001610147565b34801561022e575f80fd5b506101c561023d36600461170c565b60056020525f908152604090205460ff1681565b34801561025c575f80fd5b50610185610d28565b348015610270575f80fd5b5061018561027f36600461170c565b610d39565b34801561028f575f80fd5b50610185610dac565b3480156102a3575f80fd5b505f546001600160a01b031661020b565b3480156102bf575f80fd5b506101856102ce36600461170c565b610dbc565b3480156102de575f80fd5b506101856102ed36600461150f565b610de4565b3480156102fd575f80fd5b5061031161030c36600461150f565b6110ef565b6040516101479190611725565b348015610329575f80fd5b506101c561033836600461170c565b60046020525f908152604090205460ff1681565b348015610357575f80fd5b506101856103663660046117db565b6112c9565b348015610376575f80fd5b5061018561038536600461170c565b61132f565b348015610395575f80fd5b506101856103a436600461170c565b61135a565b600360208190525f918252604090912080546001820154600283015493830180546001600160a01b0393841695929492909316926103e690611810565b80601f016020809104026020016040519081016040528092919081815260200182805461041290611810565b801561045d5780601f106104345761010080835404028352916020019161045d565b820191905f5260205f20905b81548152906001019060200180831161044057829003601f168201915b50505050509080600401805461047290611810565b80601f016020809104026020016040519081016040528092919081815260200182805461049e90611810565b80156104e95780601f106104c0576101008083540402835291602001916104e9565b820191905f5260205f20905b8154815290600101906020018083116104cc57829003601f168201915b50505050600583015460069093015491929160ff80821692506101009091041688565b5f610515611394565b61051d6113be565b5f3386864243604051602001610537959493929190611848565b60408051601f1981840301815291815281516020928301205f8181526003909352912060050154909150156105ac5760405162461bcd60e51b81526020600482015260166024820152755061796d656e7420616c72656164792065786973747360501b60448201526064015b60405180910390fd5b6001600160a01b03841661060e578234146106095760405162461bcd60e51b815260206004820152601860248201527f496e636f7272656374207061796d656e7420616d6f756e74000000000000000060448201526064016105a3565b610723565b6001600160a01b0384165f9081526005602052604090205460ff1661066b5760405162461bcd60e51b8152602060048201526013602482015272151bdad95b881b9bdd081cdd5c1c1bdc9d1959606a1b60448201526064016105a3565b6040516323b872dd60e01b8152336004820152306024820152604481018490526001600160a01b038516906323b872dd906064016020604051808303815f875af11580156106bb573d5f803e3d5ffd5b505050506040513d601f19601f820116820180604052508101906106df91906118a2565b6107235760405162461bcd60e51b8152602060048201526015602482015274151bdad95b881d1c985b9cd9995c8819985a5b1959605a1b60448201526064016105a3565b604080516101008101825233815260208082018681526001600160a01b03888116848601908152606085018c8152608086018c90524260a08701525f60c0870181905260e0870181905288815260039586905296909620855181549084166001600160a01b03199182161782559351600182015590516002820180549190931693169290921790559251919291908201906107be908261190b565b50608082015160048201906107d3908261190b565b5060a0820151600582015560c08201516006909101805460e09093015115156101000261ff00199215159290921661ffff1990931692909217179055604051339082907f55e1a536136871d601bbc6496ad8178dd8693425f851c5305dda2a96edd62147906108459087908a906119c7565b60405180910390a3905061085860018055565b949350505050565b6108686113e2565b61087061140e565b565b61087a611394565b335f9081526004602052604090205460ff166108c95760405162461bcd60e51b815260206004820152600e60248201526d139bdd08185d5d1a1bdc9a5e995960921b60448201526064016105a3565b5f818152600360205260409020600581015461091b5760405162461bcd60e51b815260206004820152601160248201527014185e5b595b9d081b9bdd08199bdd5b99607a1b60448201526064016105a3565b600681015460ff16156109635760405162461bcd60e51b815260206004820152601060248201526f105b1c9958591e48195e1958dd5d195960821b60448201526064016105a3565b6006810154610100900460ff16156109b05760405162461bcd60e51b815260206004820152601060248201526f105b1c9958591e481c99599d5b99195960821b60448201526064016105a3565b60068101805460ff1916600117905560028101546001600160a01b0316610a6d5760065460018201546040515f926001600160a01b031691908381818185875af1925050503d805f8114610a1f576040519150601f19603f3d011682016040523d82523d5f602084013e610a24565b606091505b5050905080610a675760405162461bcd60e51b815260206004820152600f60248201526e151c985b9cd9995c8819985a5b1959608a1b60448201526064016105a3565b50610b2f565b6002810154600654600183015460405163a9059cbb60e01b81526001600160a01b039283166004820152602481019190915291169063a9059cbb906044016020604051808303815f875af1158015610ac7573d5f803e3d5ffd5b505050506040513d601f19601f82011682018060405250810190610aeb91906118a2565b610b2f5760405162461bcd60e51b8152602060048201526015602482015274151bdad95b881d1c985b9cd9995c8819985a5b1959605a1b60448201526064016105a3565b604051339083907f904e7ee166d2ddc185e59d9de47d79bc88edea59a196830ec8c5550b2ccb26ca905f90a350610b6560018055565b50565b5f81815260036020818152604080842081516101008101835281546001600160a01b03908116825260018301549482019490945260028201549093169183019190915291820180548493916060840191610bc190611810565b80601f0160208091040260200160405190810160405280929190818152602001828054610bed90611810565b8015610c385780601f10610c0f57610100808354040283529160200191610c38565b820191905f5260205f20905b815481529060010190602001808311610c1b57829003601f168201915b50505050508152602001600482018054610c5190611810565b80601f0160208091040260200160405190810160405280929190818152602001828054610c7d90611810565b8015610cc85780601f10610c9f57610100808354040283529160200191610cc8565b820191905f5260205f20905b815481529060010190602001808311610cab57829003601f168201915b50505091835250506005820154602082015260069091015460ff8082161515604084015261010090910416151560609091015260a081015190915015801590610d1357508060c00151155b8015610d2157508060e00151155b9392505050565b610d306113e2565b6108705f611460565b610d416113e2565b6001600160a01b038116610d8a5760405162461bcd60e51b815260206004820152601060248201526f496e76616c696420747265617375727960801b60448201526064016105a3565b600680546001600160a01b0319166001600160a01b0392909216919091179055565b610db46113e2565b6108706114af565b610dc46113e2565b6001600160a01b03165f908152600460205260409020805460ff19169055565b610dec611394565b335f9081526004602052604090205460ff16610e3b5760405162461bcd60e51b815260206004820152600e60248201526d139bdd08185d5d1a1bdc9a5e995960921b60448201526064016105a3565b5f8181526003602052604090206005810154610e8d5760405162461bcd60e51b815260206004820152601160248201527014185e5b595b9d081b9bdd08199bdd5b99607a1b60448201526064016105a3565b600681015460ff1615610ed55760405162461bcd60e51b815260206004820152601060248201526f105b1c9958591e48195e1958dd5d195960821b60448201526064016105a3565b6006810154610100900460ff1615610f225760405162461bcd60e51b815260206004820152601060248201526f105b1c9958591e481c99599d5b99195960821b60448201526064016105a3565b60068101805461ff00191661010017905560028101546001600160a01b0316610fde57805460018201546040515f926001600160a01b031691908381818185875af1925050503d805f8114610f92576040519150601f19603f3d011682016040523d82523d5f602084013e610f97565b606091505b5050905080610fd85760405162461bcd60e51b815260206004820152600d60248201526c1499599d5b990819985a5b1959609a1b60448201526064016105a3565b5061109d565b60028101548154600183015460405163a9059cbb60e01b81526001600160a01b039283166004820152602481019190915291169063a9059cbb906044016020604051808303815f875af1158015611037573d5f803e3d5ffd5b505050506040513d601f19601f8201168201806040525081019061105b91906118a2565b61109d5760405162461bcd60e51b8152602060048201526013602482015272151bdad95b881c99599d5b990819985a5b1959606a1b60448201526064016105a3565b805460018201546040519081526001600160a01b039091169083907f3b28817a65441bed1ac3a5496c6b71346aa302e80c7418c12e1c49eaa17211769060200160405180910390a350610b6560018055565b60408051610100810182525f808252602082018190529181018290526060808201819052608082015260a0810182905260c0810182905260e08101919091525f8281526003602081815260409283902083516101008101855281546001600160a01b039081168252600183015493820193909352600282015490921693820193909352908201805491929160608401919061118990611810565b80601f01602080910402602001604051908101604052809291908181526020018280546111b590611810565b80156112005780601f106111d757610100808354040283529160200191611200565b820191905f5260205f20905b8154815290600101906020018083116111e357829003601f168201915b5050505050815260200160048201805461121990611810565b80601f016020809104026020016040519081016040528092919081815260200182805461124590611810565b80156112905780601f1061126757610100808354040283529160200191611290565b820191905f5260205f20905b81548152906001019060200180831161127357829003601f168201915b50505091835250506005820154602082015260069091015460ff8082161515604084015261010090910416151560609091015292915050565b6112d16113e2565b6001600160a01b0382165f81815260056020908152604091829020805460ff191685151590811790915591519182527fd86c88b4a367d9b81a6e00c9d3f7d01657bffef358fa8968c91c045ae99f0d52910160405180910390a25050565b6113376113e2565b6001600160a01b03165f908152600460205260409020805460ff19166001179055565b6113626113e2565b6001600160a01b03811661138b57604051631e4fbdf760e01b81525f60048201526024016105a3565b610b6581611460565b6002600154036113b757604051633ee5aeb560e01b815260040160405180910390fd5b6002600155565b60025460ff16156108705760405163d93c066560e01b815260040160405180910390fd5b5f546001600160a01b031633146108705760405163118cdaa760e01b81523360048201526024016105a3565b6114166114ec565b6002805460ff191690557f5db9ee0a495bf2e6ff9c91a7834c1ba4fdd244a5e8aa4e537bd38aeae4b073aa335b6040516001600160a01b03909116815260200160405180910390a1565b5f80546001600160a01b038381166001600160a01b0319831681178455604051919092169283917f8be0079c531659141344cd1fd0a4f28419497f9722a3daafe3b4186f6b6457e09190a35050565b6114b76113be565b6002805460ff191660011790557f62e78cea01bee320cd4e420270b5ea74000d11b0c9f74754ebdbfc544b05a2586114433390565b60025460ff1661087057604051638dfc202b60e01b815260040160405180910390fd5b5f6020828403121561151f575f80fd5b5035919050565b5f5b83811015611540578181015183820152602001611528565b50505f910152565b5f815180845261155f816020860160208601611526565b601f01601f19169290920160200192915050565b6001600160a01b0389811682526020820189905287166040820152610100606082018190525f906115a683820189611548565b905082810360808401526115ba8188611548565b60a0840196909652505091151560c0830152151560e09091015295945050505050565b634e487b7160e01b5f52604160045260245ffd5b5f82601f830112611600575f80fd5b813567ffffffffffffffff8082111561161b5761161b6115dd565b604051601f8301601f19908116603f01168101908282118183101715611643576116436115dd565b8160405283815286602085880101111561165b575f80fd5b836020870160208301375f602085830101528094505050505092915050565b80356001600160a01b0381168114611690575f80fd5b919050565b5f805f80608085870312156116a8575f80fd5b843567ffffffffffffffff808211156116bf575f80fd5b6116cb888389016115f1565b955060208701359150808211156116e0575f80fd5b506116ed878288016115f1565b9350506116fc6040860161167a565b9396929550929360600135925050565b5f6020828403121561171c575f80fd5b610d218261167a565b6020815260018060a01b038251166020820152602082015160408201525f604083015161175d60608401826001600160a01b03169052565b50606083015161010080608085015261177a610120850183611548565b91506080850151601f198584030160a08601526117978382611548565b92505060a085015160c085015260c08501516117b760e086018215159052565b5060e0850151801515858301525090949350505050565b8015158114610b65575f80fd5b5f80604083850312156117ec575f80fd5b6117f58361167a565b91506020830135611805816117ce565b809150509250929050565b600181811c9082168061182457607f821691505b60208210810361184257634e487b7160e01b5f52602260045260245ffd5b50919050565b6bffffffffffffffffffffffff198660601b1681525f8551611871816014850160208a01611526565b855190830190611888816014840160208a01611526565b016014810194909452505060348201526054019392505050565b5f602082840312156118b2575f80fd5b8151610d21816117ce565b601f821115611906575f81815260208120601f850160051c810160208610156118e35750805b601f850160051c820191505b81811015611902578281556001016118ef565b5050505b505050565b815167ffffffffffffffff811115611925576119256115dd565b611939816119338454611810565b846118bd565b602080601f83116001811461196c575f84156119555750858301515b5f19600386901b1c1916600185901b178555611902565b5f85815260208120601f198616915b8281101561199a5788860151825594840194600190910190840161197b565b50858210156119b757878501515f19600388901b60f8161c191681555b5050505050600190811b01905550565b828152604060208201525f610858604083018461154856fea2646970667358221220b3e30061830b1c51c5e99b8704681e80867eba2f59a053f104dc407766ab5a4e64736f6c63430008140033",
  "linkReferences": {},
  "deployedLinkReferences": {},
  "immutableReferences": {},
  "inputSourceName": "project/contracts/PaymentEscrow.sol",
  "buildInfoId": "solc-0_8_20-1d5878768536b28f815211f45657dfcbb1f15f22"
}